:020000040800F2
:1000000000040020470100085501000865070008AA
:10001000590100085B0100085D01000800000000B4
:100020000000000000000000000000005F01000868
:100030006101000800000000C38F00089B07000852
:10004000BD070008BF070008C1070008C307000874
:100050001B0800081D0800081F08000821080008E8
:100060002308000825080008270800086701000881
:1000700067010008670100086701000867010008C0
:100080006701000867010008670100085F080008B1
:100090006308000867010008670100086B08000892
:1000A0006D0800086F080008710800087308000850
:1000B0007508000877080008790800087B08000820
:1000C0007D0800087F0800088108000883080008F0
:1000D000850800088708000803090008070A0008C7
:1000E000050B0008070B0008090B00080B0B0008A4
:1000F0000D0B00080F0B0008110B0008130B000874
:10010000150B0008170B0008190B00081B0B000843
:100110001D0B00087D0B0008B50C0008B70C00088B
:10012000B90C0008BB0C0008BD0C0008BF0C00088F
:10013000DFF80CD013F0D4FB004800473D05000861
:1001400018710020704708488047084981F30888E3
:1001500007480047FEE7FEE7FEE7FEE7FEE7FEE7AB
:10016000FEE7FEE7FEE7FEE7450100081871002004
:100170003101000810B57D2008F085FD08B108F0B8
:100180008CFE45F2555007F0DDFA042007F0DDFA49
:1001900040F6FF7007F0DCFA07F0DDFABDE810402A
:1001A00007F0DEBA08B500F026FE00F068FE00F0A9
:1001B000F9FEFF4C00256A460021A06A0AF0C9FB3F
:1001C000FC4800F057FF18B1FA49606909F0E1FEF8
:1001D000207820B1F6482C3000F092FE25700022E5
:1001E0000A23114610460BF064F8A06A0AF040FC9E
:1001F000E1E708B5EE4C6A460021E0690AF0A9FB88
:1002000001F050FDF7E71FB50221EB4807F06BFD49
:10021000E74C6D4603AA0021A06809F01DFE9DF879
:100220000C100029F6D1421852796A54491C0C2945
:10023000F9DB6946606909F0ACFEEBE708B504211B
:10024000DE4807F050FDDA4C6A460021606809F08C
:1002500003FE9DF800100029F6D101F01CF8F3E729
:100260002DE9F043C9B04FF49071684612F001FED9
:10027000DFF83C936E4600244FF47A7706EB440592
:1002800026F8147004F10108A5F8487005F19001F2
:100290001FFA88F004F08EFAB5F8900008B9A5F8B6
:1002A00090702634A0B248A904F084FABDF8201159
:1002B000A9F802101FFA88F4A5F8D870242CDDD311
:1002C00005F05AF849B0BDE8F08308B5B84DBC4C0C
:1002D00000266A460021E86809F0BEFD9DF800107E
:1002E00009B903F0E9FE207808B103F052FF267047
:1002F000EFE770B586B0B3498020CDE90110092041
:10030000002500900324CDE90354034601F5FE7255
:100310002946AD480AF00BFD05AAACA109200AF058
:100320005EFEAC494FF48060CDE9011005200090DD
:10033000CDE90354034601F6FC720021A6480AF0F9
:10034000F6FC05AAA5A105200AF049FE4FF4807627
:10035000A548CDE9010607200090CDE903540346E6
:10036000A24A0021A2480AF0E2FC05AAA1A10720A6
:100370000AF035FE9D48A14A001DCDE90106062080
:100380000090CDE90354034600219D480AF0CFFCBC
:1003900005AA9CA106200AF022FE98489D4A001D4D
:1003A000CDE901060B200090CDE90354034600215E
:1003B00099480AF0BCFC05AA98A10B200AF00FFE90
:1003C0009449E001091DCDE901100C200090CDE910
:1003D0000354034601F2FC52002191480AF0A7FCA5
:1003E00005AA90A10C200AF0FAFD06B070BD06F037
:1003F000C8FC09F01AF8002009F0A7FC6C4C6060FA
:10040000002009F0A2FCA060002009F09EFCE06042
:10041000002009F09AFC2061002009F096FC606140
:1004200001200AF00FFAA06100200AF00BFAE06147
:1004300000200AF007FA206200200AF003FA606246
:1004400000200AF0FFF9A062FFF753FFFFF792FECA
:1004500076A013F0A3FE7A4F0821384607F043FC3C
:10046000DFF85481774D4FF40079607830BB4FF45A
:100470008071404607F023FCB0B100224FF42F7684
:100480003346114610460AF014FF0821384607F09B
:100490002AFC00223346114610460AF00AFF0821C2
:1004A000384607F022FC09E00821384607F01BFC1B
:1004B0000022C823114610460AF0FBFE287810B12E
:1004C0000120607001E06078B8B10821384607F07B
:1004D0000AFC1021384607F006FC0022C82311460A
:1004E00010460AF0E6FE1021384607F0FEFB002217
:1004F000C823114610460AF0DCFE4946404607F084
:10050000DEFB0028B1D16078B0B10020607058B136
:10051000642006F065FC00226423114610460AF0B0
:10052000C8FE642006F05CFC607800289DD128702D
:10053000642006F055FC98E70120E7E700B587B096
:1005400000214FF0006007F0C3F908F045FE9C223F
:10055000029203200021CDE903103B4B194ACDE95B
:1005600000030346121F39480AF0E1FB05AA38A12F
:1005700003200AF034FD08F045FF07B0002000BD5D
:100580001CB536A1D1E90021CDE9002170B1302898
:100590007BD8094C8DF801000221204607F0A5FB0D
:1005A000684601F055FA022120465BE06EE06CE0FF
:1005B00000000020F0370020000C01400010014036
:1005C000B1000020900F0020CB0200085573657227
:1005D000494600009011002061020008545F565304
:1005E000616D706C65000000902100208C2500205A
:1005F0003D020008436F6D5F343835008C290020C0
:1006000007020008496E73696465436F6D5F343893
:10061000350000008C2D0020F301000847534D00E9
:10062000A50100084E726639303500000D0ACFB5BD
:10063000CDB3C6F4B6AFC1CBA3A10D0A0000000034
:100640000018014036000020200D0020EF030008B4
:100650005374617274205461736B0000EE010700E3
:1006600000ED000007F03FFB3A48007800280CD06E
:10067000394A012069460B5C1354401CC0B2032860
:10068000F9D3354901202C3908701CBD03218DF8A0
:1006900002107EE72DE9F34F002483B02546019434
:1006A000A346A246A146A04627462646009400221D
:1006B0000123114610460AF0FCFD0398C0B1012841
:1006C00027D0022836D00328F1D1641CE4B2402C94
:1006D000EDD300246D1C06EBDA06EDB2A2460A2D1E
:1006E000E5D30A20B6FBF0F005B080B2BDE8F08F8C
:1006F000641CE4B2402CDAD3002401996D1CEDB2E5
:1007000008EBD10801940A2DD1D30A21B8FBF1F0EE
:10071000EAE7641CE4B2402CC9D3002400996D1CA4
:10072000EDB209EBD10900940A2DC0D30A21B9FB1F
:10073000F1F0D9E7641CE4B2402CB8D300246D1C5E
:1007400007EBDB07EDB2A3460A2DB0D30A20B7FBB7
:10075000F0F0C9E7500000202C0000200821FB48E1
:1007600007F0C3BAF94C0821204607F0BEFAFAE7B1
:10077000F64C0821204607F0B8FAFAE7F34C0821B6
:10078000204607F0B2FAFAE7F04C0821204607F0BD
:10079000ACFAFAE770477047704710B508F0F0FB05
:1007A000EB4A1178491C117008F0EEFB08F072FE5C
:1007B00005F070FABDE8104008F0AEBD7047704714
:1007C000704710B507F00BF9E2494FF46164084433
:1007D000A0421DD207F003F9B0FBF4F104FB1100B5
:1007E000A0F6D4503C2813D207F0F9F8B0FBF4F18E
:1007F00004FB11003C21B0FBF1F201FB12003B288D
:1008000006D107F027F9002007F0F2F807F022F9E7
:10081000BDE81040012007F04AB9704770477047A3
:1008200070477047704710B508F0AAFBC8490A78AE
:10083000521C0A7008F0A8FB102006F0FFFF10B150
:10084000102007F009F8BDE8104008F065BD7047BA
:1008500070477047704770477047704770470EF099
:10086000AABD0DF0BDBD7047704770477047704717
:1008700070477047704770477047704770477047C0
:100880007047704770472DE9F04108F079FBB04A96
:100890001178491C117008F077FBAF4E40F22557D4
:1008A0003946304607F0BCFD38B3304607F065FDE9
:1008B000AB4D0146A94C687B2154401CC0B2687303
:1008C000142804D0204410F8010C0D280AD100226D
:1008D0003946304607F001FD697B00206054012154
:1008E000A9616873687B204410F8011C304607F04A
:1008F00040FD3946304607F0B2FDBDE8F04108F052
:100900000BBD2DE9F04108F03BFB914A1178491CE1
:10091000117008F039FB934C40F22551204607F046
:100920007FFD00286BD0204607F027FD8C4DC4B218
:100930008A4EE87A0027092214364FF4FA710A2801
:100940005DD2DFE800F0055C10161C2334434A4FEB
:10095000EE2C54D18148143012F08BFA34700120FF
:100960002882022037E0288A3454401C2882032041
:1009700031E0288A3454401C288204202BE0288A45
:100980003454401C28826C82052024E0288A345488
:10099000401C2882A87C04EB00200004000C688224
:1009A00003D088422AD8062015E0EA7227E0288A78
:1009B0003454401C2882688A401E0004000C68825F
:1009C0001DD1B0780028F0D0072004E0288A3454E4
:1009D000401C28820820E87211E0288A3454401C08
:1009E0002882E2E7288A3454401C2882ED2C05D165
:1009F0005D485A491431006809F0CBFAEF72BDE83E
:100A0000F04108F089BC2DE9F04108F0B9FA504AEC
:100A10001178491C117008F0B7FA544C40F2255176
:100A2000204607F0FDFC002868D0204607F0A5FC12
:100A30004B4DC4B20027287B09224D4E4FF4FA716A
:100A40000A285BD2DFE800F0055A0F151B2233425B
:100A5000494EEE2C52D1464812F00BFA3470012068
:100A6000A882022037E0A88A3454401CA8820320C0
:100A700031E0A88A3454401CA88204202BE0A88AC4
:100A80003454401CA882EC82052024E0A88A345407
:100A9000401CA882A87D04EB00200004000CE88222
:100AA00003D0884229D8062015E02A7326E0A88AB8
:100AB0003454401CA882E88A401E0004000CE882DE
:100AC0001CD1B0780028F0D0072004E0A88A345464
:100AD000401CA8820820287310E0A88A3454401CC7
:100AE000A882E2E7A88A3454401CA882ED2C04D1E5
:100AF00020481F49006809F04CFA2F73BDE8F04107
:100B000008F00ABC704770477047704770477047DD
:100B100070477047704770477047704710B508F0CE
:100B20002FFA0B490A78521C0A7008F02DFA124C61
:100B300040F22551204607F073FC10B1204607F023
:100B40001CFCBDE8104008F0E7BB000000180140A5
:100B50001A02002090BCFEFF0038014090330020B4
:100B60003400002000440040040000200048004001
:100B70009835002008000020004C00402DE9F0418D
:100B800008F0FEF94E4A1178491C117008F0FCF982
:100B90004C4C40F22551204607F042FC00281DD065
:100BA000204607F0EAFB4849C0B20A78002A7DD007
:100BB000464E4A79B0544A79521C4A7101244F2852
:100BC00009D00B79022503270022ABB18B7BF35CA4
:100BD0004B2B04D010E00C714879887366E08B7958
:100BE00023B1012B04D0022B05D103E08C7102E06C
:100BF0008D7100E08F710A7105234FF0040C3E28BF
:100C000004D02B280DD052280FD001E081F806C067
:100C10008879072849D2DFE800F0480E1114181A25
:100C20003E008879C8718B7103E08879C87106200D
:100C300088714C713AE04A710D7237E04A710F7257
:100C400034E04A7181F808C030E00B722EE0487A37
:100C5000401CC0B24872052828D14A7270784328D7
:100C60000BD1B0784D2808D1F078472805D13079DC
:100C7000532802D170793A2802D0C879887115E0DA
:100C80004C700D728C711248037813B90A708A7017
:100C9000CC7002700AE0887A401CC0B288720328C7
:100CA00004D18A720D728C7100E08A71BDE8F04146
:100CB00008F032BB70477047704770477047704705
:100CC0001A02002000500040340000208C37002021
:100CD0006900002010B586B00121052008F0AFF8AA
:100CE0000121880308F0ABF84FF40070ADF8100054
:100CF00018208DF8130003202A4C8DF8120004A947
:100D0000204606F086FF2115ADF8101004218DF85D
:100D1000131004A9204606F07CFF04A9204606F023
:100D200078FF4FF4E13000900020ADF80400ADF8FA
:100D30000600ADF80800ADF80C000C201A4CADF818
:100D40000A006946204607F05BFA012240F225516D
:100D5000204607F0C2FA0121204607F0B4FA4021EC
:100D6000204607F05AFB06B010BD70B50E4D044684
:100D7000C1B2284607F0FDFA4021284607F046FB9D
:100D80000028F9D0204670BD10B5074C2021204620
:100D900007F03CFB0028F9D02046BDE8104007F0E2
:100DA000ECBA0000000801400038014070B5012194
:100DB000442008F044F8C64C4FF4784001252080C8
:100DC000A5701026E6702146C24806F022FFB0202A
:100DD0002080A570E670C04E2146304606F019FF0F
:100DE00040202080A5700420E07021463046BDE8F8
:100DF000704006F00EBF10B5FFF7D8FFB54C4FF4AA
:100E00000041204606F06FFF6114204606F06DFF9A
:100E10002021B14806F069FFAD494FF4C050088069
:100E2000012088700420C8702046BDE8104006F0FC
:100E3000F0BE2DE9F041A84F0546002428064FF0EA
:100E40008001384602D506F04EFF01E006F04DFF66
:100E50006806060E2021384606F045FF4021384638
:100E600006F02DFF40EA06052021384606F03DFF3A
:100E7000641CE4B2082CE1D32846BDE8F0812DE9DA
:100E8000F041944D00244FF40041284606F02BFF1A
:100E90004FF400584146284606F027FF8E4F102198
:100EA000384606F022FF0020FFF7C3FFDC20FFF7E3
:100EB000C0FF0C20FFF7BDFF4420FFF7BAFF0C2056
:100EC000FFF7B7FF0C20FFF7B4FF814E093E305DFE
:100ED000FFF7AFFF641CE4B2042CF8D3D820FFF76F
:100EE000A8FF1021384606F0FEFE4FF48041284648
:100EF00006F0FBFE41462846BDE8F04106F0F3BE91
:100F00002DE9F047734E054600244FF4004130466A
:100F100006F0E9FE4FF400594946304606F0E5FE7A
:100F20004FF4804A5146304606F0DDFEDFF8A881D6
:100F30001021404606F0D9FE2220FFF77AFF644FC9
:100F40007F1F385DFFF775FF641CE4B2042CF8D3F3
:100F500010214746404606F0C6FE1021384606F0EE
:100F6000C4FE2020FFF765FF0024285DFFF761FF26
:100F7000641CE4B20C2CF8D31021384606F0B3FE02
:100F80004946304606F0AFFE4FF400642146304635
:100F900006F095FE0028F9D051463046BDE8F047EE
:100FA00006F0A3BE2DE9FE4F00244CA0009401944E
:100FB0000068484D02904FF40041284606F093FE29
:100FC0004FF400584146284606F08FFE4FF4804A01
:100FD0005146284606F087FE3F4F1021384606F05E
:100FE00084FE2220FFF725FF02AE305DFFF721FFD0
:100FF000641CA4B2042CF8D31021384606F073FE0A
:101000001021384606F071FE2020FFF712FF002461
:101010006E46305DFFF70DFF641CA4B20C2CF8D3B4
:101020001021384606F05FFE4146284606F05BFE7A
:10103000A846274E00240125294F4FF400690A3E97
:101040004946404606F03BFE012803D1357038681A
:1010500009F00EFD00220523114610460AF029F979
:10106000641CA4B2322CEBD35146404606F03DFE40
:10107000BDE8FE8F2DE9F041164E054600244FF4E1
:101080000061304606F01BFE012801D00020F4E686
:101090004FF400584146304606F027FE0E4F10210F
:1010A000384606F022FE2420FFF7C3FE0020FFF79B
:1010B000C0FE2855641CE4B20C2CF7D3102138462E
:1010C00006F011FE4146304606F00DFE0120D4E642
:1010D0005A0000200018014000080140BBBBBBBB08
:1010E0002800002070B5F44DFF231A4605F58066F0
:1010F00008E010F8014B5C4015F82430534016F816
:101100002420DBB2491EF4D242EA032070BD73B53D
:101110000646012101A8FFF7E5FFC4B2050AEE204B
:1011200000F0AAFC002000F0A7FC304600F0A4FC70
:10113000002000F0A1FC012000F09EFC9DF80400BE
:1011400000F09AFC284600F097FC204600F094FC42
:10115000ED2000F091FC7CBDF8B5064600208DF82E
:10116000000001216846FFF7BDFFC4B2050AEE206A
:1011700000F082FC9DF8000000F07EFC304600F09C
:101180007BFC002000F078FC012000F075FC9DF84D
:10119000000000F071FC284600F06EFC204600F0D4
:1011A0006BFCED2000F068FCF8BDF8B50E468DF83C
:1011B000000007468DF80110144602216846FFF72B
:1011C00091FF0546EE2000F057FC002000F054FC93
:1011D000C02C04D0C12C04D0C22C07D103E0C02005
:1011E00002E0C12000E0C22000F046FC002000F038
:1011F00043FC022000F040FC384600F03DFC304645
:1012000000F03AFC280A00F037FCE8B200F034FCA9
:10121000ED2000F031FCF8BD2DE9F8430027A74888
:101220008DF800703C466A460221006808F014FE02
:1012300005469DF80000A24910B10A2802D002E03C
:101240004D6000E04D680C212846FFF74BFF00F091
:10125000FF08060AEE2000F00FFC384600F00CFCF8
:10126000072000F009FC002000F006FC0C2000F034
:1012700003FC285D00F000FC641CA4B20C2CF8D325
:10128000304600F0F9FB404600F0F6FBED2000F0A0
:10129000F3FBBDE8F8832DE9F04F9FB0002504462D
:1012A000A8468DF87450042006F05FFBC1B2607848
:1012B000814201D0002873D1A078824E122870D0CC
:1012C0000BDC6DD2DFE800F020223E444B6E9AA189
:1012D0006C6C6C6C6CA8BB6C6CAD79497A4FC22895
:1012E0007ED009DCA0F181006A46052858D2DFE8EB
:1012F00000F0F5F4F3F2F100C338052850D2DFE82E
:1013000000F0F2F1F0EFEE00607930B104213046E8
:1013100006F0EBFC00F08CFC78E30421304606F08C
:10132000E4FCEE2000F0A8FB404600F0A5FB002006
:1013300000F0A2FB002000F09FFB012000F09CFBCE
:10134000012055E00421304606F0CFFC02204DE29A
:101350000421304606F0C9FC00F036FC56E30421B7
:10136000304606F0C2FC0024482105A8FFF7BAFE6B
:101370000546EE2000F080FB404600F07DFB042097
:1013800000F07AFB002000F077FB482000F074FBAF
:10139000002000F071FB641CA4B2482CF8D323E0B9
:1013A00000E145E00421304606F09FFC0024602166
:1013B00005A8FFF797FE0546EE2000F05DFB4046CE
:1013C00000F05AFB052000F057FB002000F054FB12
:1013D000402000F051FB002000F04EFB641C00E0B8
:1013E00034E0A4B2602CF6D3280A00F045FBE8B242
:1013F00000F042FBED2000F03FFB07E30421304604
:1014000006F073FC00F0A8FB00E30421304606F070
:101410006CFCFFF701FFF9E20421304606F065FCA1
:10142000F4E20421304606F060FC00F06BFBEDE2D4
:101430000421304606F059FC00211220E4E2042188
:10144000304606F052FC00F024FBDFE21F4881F832
:10145000008089461DAA0021006809F07AFA10214F
:10146000B246304606F041FC2079194E012802D0E0
:1014700000287ED0EAE0002264231146104609F0DD
:1014800018FF6079FFF77CF80022642311461046AC
:1014900009F00FFF1DAA0021306808F0DDFC0446AA
:1014A0009DF874000A287DD099F80100E0B1E07938
:1014B000A17900EB012037E0684B01081000002003
:1014C00060000020001001400008014018000020CA
:1014D000040000204BE2FCE1C3E18AE15BE133E17F
:1014E00017E112E1C8E0BFE061790220FFF7D2F80E
:1014F00085B261790320FFF7CDF886B2284611F056
:1015000058FF0546304611F054FF294611F0FDFD05
:101510000546E079A17900EB012011F04AFF294648
:1015200011F0C1FD11F05BFF84B204215546504615
:1015300006F0DBFBE1B2200AC222FFF736FE0421EF
:10154000284606F0D0FB0221384606F0CCFB0022EC
:1015500064231146104609F0ACFE0221384606F01D
:10156000C4FB002264231146104609F0A2FE6DE080
:10157000FFE7B346002264231146104609F099FEA6
:101580006E1CF0B2FEF7FCFF0022642311461046E9
:1015900009F08FFE1DAA0021DBF8000008F05CFCBA
:1015A000044600E05DE09DF874000A284ED099F8EA
:1015B000010020B1A079617900EB012020E0691CD5
:1015C0000220FFF767F81FFA80F8691C0320FFF775
:1015D00061F885B2404611F0ECFE8046284611F0D5
:1015E000E8FE414611F091FD0546A079617900EBD6
:1015F000012011F0DEFE294611F055FD11F0EFFE3D
:1016000084B204215546504606F06FFBE1B2200A31
:10161000C222FFF7CAFD0421284606F064FB02211E
:10162000384606F060FB002264231146104609F09C
:1016300040FE0221384606F058FB00226423114682
:10164000104609F036FEF5B2242D93D3FA4800680F
:1016500009F00EFA1021504606F045FB012089F8EA
:1016600000001FB0BDE8F08FA079617900EB012088
:1016700084B2214626206EE06079217A303800EB72
:101680004002C2EBC01001EBC002A17964204143CB
:10169000E07900EB800001EB40001044A0F5A05081
:1016A000D03881B2282006F059F9607A217B303891
:1016B00000EB4002C2EBC01001EBC002A17A642033
:1016C0004143E07A00EB800001EB40001044A0F5BC
:1016D000A050D03881B2402006F040F9607BE17B19
:1016E000303800EBC00202EB001001EB8001A07B60
:1016F0004FF6F05200EB800002EB4000084484B249
:101700002146442006F02AF927E0012048700146CE
:1017100002E081F801800021252003F0F4F8022185
:10172000384606F0E0FA002264231146104609F01C
:10173000C0FD0221384606F0D8FA00226423114683
:10174000104609F0B6FD8CE7A079617900EB012025
:1017500084B22146272003F0D6F80221384606F04D
:10176000C2FA002264231146104609F0A2FD0221AC
:10177000384606F0BAFA002264231146104609F0F2
:1017800098FD0421304606F0B0FAE1B2200AC222E8
:10179000FFF70BFD3AE1E078217901EB002081B2FF
:1017A000012006E0231815181B79401C05F8013CA0
:1017B000C0B28842F6D960184279807900EB0220E5
:1017C00085B26846FFF78EFC8542BCD16179042062
:1017D00006F0C4F8042006F0C8F86179C0B2884267
:1017E000B1D10421304606F080FA8120FFF7B4FC25
:1017F0000CE1E078217901EB002081B2012006E0C4
:10180000231815181B79401C05F8013CC0B288420A
:10181000F6D960184279807900EB022085B26846DB
:10182000FFF760FCA8428ED1A079617900EB01201E
:1018300081B2142006F092F8142006F096F861792F
:10184000B1EB102FC1D1142006F08FF8A179C0B2EE
:101850008842BAD10421304606F047FA002182209E
:10186000D2E0E078217901EB002081B2012006E08E
:10187000231815181B79401C05F8013CC0B288429A
:10188000F6D960184279807900EB022085B268466B
:10189000FFF728FCA84298D16079A17901EB0020DC
:1018A00081B2202006F05AF8202006F05EF8617917
:1018B000B1EB102F89D1202006F057F8A179C0B2E2
:1018C00088428DD10421304606F00FFA0021832092
:1018D0009AE0E078217901EB002081B2012006E056
:1018E000231815181B79401C05F8013CC0B288422A
:1018F000F6D960184279807900EB022085B26846FB
:10190000FFF7F0FBA8428ED16079A17901EB0020AE
:1019100081B2182006F022F8E079217A01EB00204C
:1019200081B21C2006F01AF8182006F01EF8617922
:10193000B1EB102F86D1182006F017F8A179C0B2AC
:10194000884286D11C2006F010F8E179B1EB102F07
:10195000A1D11C2006F009F8217AC0B288429AD1A0
:101960000421304606F0C1F9002184204CE0E078E3
:10197000217901EB002081B2012006E0231815181F
:101980001B79401C05F8013CC0B28842F6D96018AA
:101990004279807900EB022085B26846FFF7A2FB0E
:1019A000A84287D16179082005F0D8FFA1790C20E1
:1019B00005F0D4FF207AE17900EB012081B21020FC
:1019C00005F0CCFF082005F0D0FF6179C0B2884255
:1019D00099D10C2005F0C9FFA179C0B2884292D1FB
:1019E000102005F0C2FFE179B1EB102F8BD1102050
:1019F00005F0BBFF217AC0B2884284D10421304671
:101A000006F073F900218520FFF781FB04213046A1
:101A100006F069F925E608B500208DF800000748B2
:101A20006A460221006808F017FA9DF80010044A7F
:101A300041B10A2908D008E0180000201000002059
:101A400060000020506000E05068FFF759FA08BDC0
:101A500070B58F4E05464FF0FF34641C3046295D4B
:101A600006F087FC4021304606F0D0FC0028F9D073
:101A7000285DED28F1D170BD10B5864C0146204699
:101A800006F077FC4021204606F0C0FC0028F9D083
:101A900010BD70B500269AB07F488DF8606034465E
:101AA00018AA3146006808F0D7F900F1C001602299
:101AB000684611F0C5F960216846FFF713FB05463B
:101AC000EE20FFF7D9FF3046FFF7D6FF0E20FFF7D5
:101AD000D3FF0020FFF7D0FF4020FFF7CDFF6E4679
:101AE000305DFFF7C9FF641CA4B2602CF8D3280A4C
:101AF000FFF7C2FFE8B2FFF7BFFFED20FFF7BCFF23
:101B00001AB070BD2DE9F041644D00240C21284627
:101B1000FFF7E8FAC6B2070AEE20FFF7ADFF002094
:101B2000FFF7AAFF1120FFF7A7FF0020FFF7A4FF90
:101B30000C20FFF7A1FF285DFFF79EFF641CE4B2B5
:101B40000C2CF8D33846FFF797FF3046FFF794FF89
:101B5000BDE8F041ED208FE770B500269AB04E4801
:101B60008DF86060344618AA3146006808F074F9B0
:101B700000F590716022684611F062F960216846B4
:101B8000FFF7B0FA0546EE20FFF776FF3046FFF785
:101B900073FF0E20FFF770FF0020FFF76DFF40205E
:101BA000FFF76AFF6E46305DFFF766FF641CA4B264
:101BB000602CF8D3280AFFF75FFFE8B2FFF75CFF5D
:101BC000ED20FFF759FF9BE7F8B50C208DF80000DA
:101BD000242000248DF801008DF8024064208DF847
:101BE0000300264604216846FFF77CFA0546EE20EE
:101BF000FFF742FF3046FFF73FFF0320FFF73CFFB0
:101C00000020FFF739FF0420FFF736FF6E46305DF6
:101C1000FFF732FF641CA4B2042CF8D3280AFFF7A4
:101C20002BFFE8B2FFF728FFED20FFF725FFF8BDF7
:101C300038B51BA00321006800906846FFF752FAF0
:101C4000C4B2050AEE20FFF717FF0020FFF714FFCC
:101C50000120FFF711FF0020FFF70EFF0320FFF721
:101C60000BFF9DF80000FFF707FF9DF80100FFF74D
:101C700003FF9DF80200FFF7FFFE2846FFF7FCFE7A
:101C80002046FFF7F9FEED20FFF7F6FE38BD000015
:101C9000004800400044004010000020E8F7FF1F0B
:101CA00000000100F8B5F9480078002827D0F8486E
:101CB00011F0F6F8F74EF84F0024F84D78283AD98D
:101CC00034702878062871D2DFE800F0B0030507E9
:101CD000091AF3A00BE0F5A009E0FAA007E0FEA0C6
:101CE00012F05CFAEB48801D12F058FAFDA012F0D9
:101CF00055FA002232231146104609F0DAFA96E02E
:101D0000F94812F04BFA002264231146104609F0FC
:101D1000D0FAF6A012F042FADE48401C12F03EFA69
:101D2000F4A012F03BFA002232231146104609F0CB
:101D3000C0FAF2A02EE0D64811F0B2F8242836D925
:101D40002878062873D2DFE800F07206050403073E
:101D5000C5E7C2E7BFE7BCE7307888B1E24812F0D8
:101D60001DFA002264231146104609F0A2FADFA0F2
:101D700012F014FAC748401C12F010FAEEA009E065
:101D8000C34812F00BFA002264231146104609F0F2
:101D900090FAECA012F002FA0022642311461046D9
:101DA00009F087FA1A21384606F0E3FA3EE034706B
:101DB000287806283AD2DFE800F039060504030740
:101DC0008DE78AE787E784E7C74812F0E7F9002242
:101DD00064231146104609F06CFAC4A012F0DEF933
:101DE000AC48401C12F0DAF9D3A012F0D7F9002267
:101DF00032231146104609F05CFA00226423114692
:101E0000104609F056FACFA012F0C8F90022642358
:101E10001146104609F04DFA1A21384606F0A9FA83
:101E2000002301221946184609F043FA2C70D14CC0
:101E3000206808F01DFED048007840B16A460021B5
:101E4000206808F086FDCD48006808F011FE0022E9
:101E50004FF4FA731146104609F02BFAF8BD2DE93C
:101E6000F8434FF0000864250A2644464FF47A7779
:101E7000CDF80080012804D002287DD003287CD131
:101E800039E284482D21801D10F0F3FF282005F051
:101E90006CFD000A60F30F24282005F066FD60F356
:101EA00007047C48B6A1801D10F0EEFFB4FBF7F2EA
:101EB000B4A1684612F082F976486946801D10F098
:101EC000E3FF7448AEA1801D10F0DEFFB4FBF7F015
:101ED00007FB1040B0FBF5F2AAA1684612F06EF9BC
:101EE0006C486946801D10F0CFFF6A48A4A1801D90
:101EF00010F0CAFFB4FBF5F005FB1040B0FBF6F2A2
:101F0000A0A1684612F05AF962486946801D10F097
:101F1000BBFF60489AA1801D10F0B6FFB4FBF6F03D
:101F200006FB104297A1684612F048F959486946E5
:101F3000801D10F0A9FF402005F017FD000A60F396
:101F40000F24402005F011FD60F3070451488CA1D7
:101F5000801D10F099FFB4FBF7F28AA1684612F0D9
:101F60002DF94C486946801D10F08EFF494884A128
:101F7000801D10F089FF01E03DE0ABE1B4FBF7F01C
:101F800007FB1040B0FBF5F27EA1684612F016F98F
:101F900040486946801D10F077FF3E4878A1801DBB
:101FA00010F072FFB4FBF5F005FB1040B0FBF6F249
:101FB00074A1684612F002F936486946801D10F097
:101FC00063FF34486EA1801D10F05EFFB4FBF6F095
:101FD00006FB10426BA1684612F0F0F82D486946E6
:101FE000801D10F051FF442005F0BFFC000A60F393
:101FF0000F24442034E127482D21801D10F039FFA3
:10200000702005F0B2FC000A60F30F24702005F088
:10201000ACFC60F307041F4859A1801D10F034FF89
:10202000B4FBF7F257A1684612F0C8F819486946A0
:10203000801D10F029FF174851A1801D10F024FFCA
:10204000B4FBF7F007FB1040B0FBF5F24DA168467A
:1020500012F0B4F80F486946801D10F015FF0D48C6
:1020600047A1801D10F010FFB4FBF5F005FB1040F8
:10207000B0FBF6F243A1684612F0A0F805486946A5
:10208000801D10F001FF3EA102487DE036000020D7
:10209000C004002069000020005000403C000020E7
:1020A00041542B434D47463D310D0A0041542B43CB
:1020B000534D503D31372C3136372C322C32350DC3
:1020C0000A00000041542B435343533D22554353D0
:1020D00032220D0A0000000041542B434D47533D6E
:1020E00022000000220D0A008855010837423243C1
:1020F000000000003745433400000000353931410D
:102100003537353737353335364336303546303267
:102110003545333846463043363536433842463700
:102120003533434136354636363843303637453514
:1021300046463031000000003745433437423243D1
:1021400000000000353346373735333536433630F7
:1021500035463032354533384646304336353643DA
:1021600038424637353137333643453846463031C5
:10217000000000001C000020370000202400002088
:102180003030330025640000801D10F07DFEB4FB6C
:10219000F6F006FB1042AFF21401684612F00EF89A
:1021A0006946B04810F070FE742005F0DEFB000AAE
:1021B00060F30F24742005F0D8FB60F30704AFF23E
:1021C0004001A84810F060FEB4FBF7F2AFF24C01FA
:1021D000684611F0F3FF6946A24810F055FEAFF2D1
:1021E0006001A04810F050FEB4FBF7F007FB104070
:1021F000B0FBF5F2AFF27401684611F0DFFF6946FB
:10220000984810F041FEAFF28801964810F03CFE6D
:10221000B4FBF5F005FB1040B0FBF6F2AFF29C0109
:10222000684611F0CBFF69468E4810F02DFEAFF2E4
:10223000B0018C4810F028FEB4FBF6F006FB10420B
:10224000AFF2C001684611F0B9FF6946854810F049
:102250001BFE782005F089FB000A60F30F2478202C
:1022600005F083FB60F30704AFF2EC017D4810F04A
:102270000BFEB4FBF5F2AFF2F401684611F09EFFDD
:102280006946784810F000FEAFF20C11754810F066
:10229000FBFDB4FBF5F005FB1040B0FBF6F2AFF22E
:1022A0001C11684611F08AFF69466E4810F0ECFD7B
:1022B000AFF234116B4810F0E7FDB4FBF6F006FB0B
:1022C0001042AFF24011684611F078FF6946654848
:1022D00010F0DAFD64490120087064490870644A0E
:1022E00082F800805F49891F08706248006808F022
:1022F000BFFBBDE8F8832D215A4810F0BAFD7C20C1
:1023000005F033FB000A60F30F247C2005F02DFB61
:1023100060F30704AFF29811524810F0B5FDB4FB1A
:10232000F7F2AFF2A011684611F048FF69464D4838
:1023300010F0AAFDAFF2B8114A4810F0A5FDB4FBA9
:10234000F7F007FB1040B0FBF5F2AFF2C81168469A
:1023500011F034FF6946434810F096FDAFF2E011EA
:10236000404810F091FDB4FBF5F005FB1040B0FBC8
:10237000F6F2AFF2F011684611F020FF69463948D5
:1023800010F082FDAFF20821364810F07DFDB4FB5D
:10239000F6F006FB1042AFF21421684611F00EFF72
:1023A0006946304810F070FD802005F0DEFA000A22
:1023B00060F30F24802005F0D8FA60F30704AFF231
:1023C0004021284810F060FDB4FBF7F2AFF24C2139
:1023D000684611F0F3FE6946224810F055FDAFF251
:1023E0006021204810F050FDB4FBF7F007FB1040CF
:1023F000B0FBF5F2AFF27421684611F0DFFE6946DA
:10240000184810F041FDAFF28821164810F03CFD4D
:10241000B4FBF5F005FB1040B0FBF6F2AFF29C21E7
:10242000684611F0CBFE69460E4810F02DFDAFF264
:10243000B0210C4810F028FDB4FBF6F006FB10426A
:10244000AFF2C021684611F0B9FE6946054810F0A8
:102450001BFD842005F089FA000A60F30F24842014
:10246000FEE600006F00002034000020360000204F
:10247000370000201C0000202DE9FE4F07460020F9
:10248000009001900290B979DFF8F893DFF8F8A393
:10249000DFF8F8B3FE4CDFF8FC8320297ED12178E9
:1024A000491C217094F90020218B491E8A4200DDCD
:1024B000207094F9001019F80110E18294F90010CD
:1024C000684619F80120F4A111F078FE6A4614213B
:1024D0001A2009F0EEFEE08A454608EB800050F82D
:1024E000040C10F090FF02460B46EDA1684611F077
:1024F00065FE6A460A211A2009F0DBFEE08A05EB38
:102500008000D0F87C0110F07EFF02460B46E6A169
:10251000684611F053FE6A460B211A2009F0C9FEE5
:10252000E08A05EB8000D0F83C0210F06CFF024618
:102530000B46DBA1684611F041FE6A460C211A20C9
:1025400009F0B7FEE08A05EB8000D0F8BC0010F07F
:102550005AFF02460B46D2A1684611F02FFE6A468A
:102560000D211A2009F0A5FEE08A05EB8000D0F8C5
:102570003C62304610F033FF85B2284610F019FF58
:10258000314610F08DFDB0F17C5F01DB6D1CADB20A
:102590002A46C7A1684611F011FE00E038E06A46FD
:1025A00022211A2009F085FEE08A454608EB8000CA
:1025B000D0F83C02504504DD10F011FF02461B210B
:1025C00023E058454FF000024FF01B014FF01A0076
:1025D0000BDD09F0A5FEE08A05EB8000D0F83C0297
:1025E00010F0FDFE02461A210FE009F099FE1A21B3
:1025F0000022084609F094FEE08A05EB8000D0F83E
:102600003C0210F0ECFE024601211A2009F088FE7F
:10261000B8791F287ED12078401E207094F90000E0
:10262000002802DA207E401E207094F9001019F86C
:102630000110E18294F90010684619F8012096A172
:1026400011F0BCFD6A4614211A2009F032FEE08A1E
:10265000454608EB800050F8040C10F0D4FE02460A
:102660000B468FA1684611F0A9FD6A460A211A207F
:1026700009F01FFEE08A05EB8000D0F87C0110F025
:10268000C2FE02460B4688A1684611F097FD6A46D5
:102690000B211A2009F00DFEE08A05EB8000D0F82E
:1026A0003C0210F0B0FE02460B467DA1684611F0D8
:1026B00085FD6A460C211A2009F0FBFDE08A05EB36
:1026C0008000D0F8BC0010F09EFE02460B4674A1BC
:1026D000684611F073FD6A460D211A2009F0E9FDE4
:1026E000E08A05EB8000D0F83C72384610F077FEA7
:1026F00086B2304610F05DFE394610F0D1FCB0F1E4
:102700007C5F01DB761CB6B2324669A1684611F0E7
:1027100055FD00E037E06A4622211A2009F0C9FD84
:10272000E08A05EB8000D0F83C02504504DD10F053
:1027300056FE02461B2123E058454FF000024FF0A1
:102740001B014FF01A000BDD09F0EAFDE08A05EBF2
:102750008000D0F83C0210F042FE02461A210FE041
:1027600009F0DEFD1A210022084609F0D9FDE08AB1
:1027700005EB8000D0F83C0210F031FE024601214A
:102780001A2009F0CDFDBDE8FE8FFEB5044649A034
:102790000026D0E90010CDE900100296A0793C4D4A
:1027A000032824D1207A68281CD1607A6F2819D197
:1027B000A07A702816D1E07A652813D1207B2028D2
:1027C00010D1607B67280DD1A07B72280AD1E07BF5
:1027D000612807D1207C6E2804D1607C642801D157
:1027E000012068726A460321182009F062FDA07971
:1027F000082805D1687A20B1162009F00BFD6E7209
:10280000FEBD192009F006FD02AA0321182009F0D7
:1028100050FDFEBD2DE9F04F8BB0002605461D484A
:10282000009600EB05140196029603960496059611
:10283000069607964FF001080A27206810F0E3FD7E
:1028400002460B4616A1684611F0B8FC6A460521FF
:10285000E81C09F02EFD606810F0D5FD02460B461D
:102860000FA1684611F0AAFC6A460621E81C09F08F
:1028700020FDA06810F0C7FD02460B4608A168467F
:102880001CE00000FC3700200000A0420000A04136
:102890009C000020900900202530326400000000D8
:1028A000252E326600000000252E33660000000051
:1028B000253364002A2A2A2A2A2A000011F07EFCE5
:1028C0006A460721E81C09F0F4FCE06810F09BFD63
:1028D00002460B46AFF23801684611F06FFC6A46BB
:1028E0000821E81C09F0E5FCD4F8800110F08BFD0C
:1028F00002460B46AFF25001684611F05FFC6A4693
:102900000921E81C09F0D5FCD4F8840110F07BFD06
:1029100002460B46AFF27001684611F04FFC6A4662
:102920000A21E81C09F0C5FCD4F8880110F06BFD01
:1029300002460B46AFF29001684611F03FFC6A4632
:102940000B21E81C09F0B5FCD4F88C0110F05BFDFC
:1029500002460B46AFF2B001684611F02FFC6A4602
:102960000C21E81C09F0A5FCD4F8400210F04BFD46
:1029700002460B46AFF2D801684611F01FFC6A46CA
:102980000D21E81C09F095FCD4F8440210F03BFD41
:1029900002460B46AFF2F801684611F00FFC6A469A
:1029A0000E21E81C09F085FCD4F8480210F02BFD3C
:1029B00002460B46AFF21811684611F0FFFB6A465B
:1029C0000F21E81C09F075FCD4F84C0210F01BFD37
:1029D00002460B46AFF23811684611F0EFFB6A462B
:1029E0001021E81C09F065FCD4F8C00010F00BFDC4
:1029F00002460B46FEA1684611F0E0FB6A46112133
:102A0000E81C09F056FCD4F8C40010F0FCFC0246A7
:102A10000B46F7A1684611F0D1FB6A461221E81C6B
:102A200009F047FCD4F8C80010F0EDFC02460B4654
:102A3000EFA1684611F0C2FB6A461321E81C09F0B9
:102A400038FCD4F8CC0010F0DEFC02460B46E8A1BE
:102A5000684611F0B3FB6A461421E81C09F029FC12
:102A60000396049605961820069604F07EFF10F053
:102A7000A0FCE14E314610F048FB09901C2004F008
:102A800074FF10F096FC314610F03FFB8346142093
:102A900004F06BFF10F08DFC314610F036FB08900F
:102AA000202004F062FF10F084FC314610F02DFB72
:102AB0008246242004F059FF10F07BFC314610F0D0
:102AC00024FB81462068099910F0EAFC16D9594682
:102AD000206810F0DBFC11D35146D4F8C00010F090
:102AE000DFFC0BD9D4F88001089910F0D9FC05D986
:102AF0004946D4F8400210F0C9FC36D208EB8506EE
:102B00000A2E03D2BDA103A810F0BEF93246BCA123
:102B100007A811F053FB07A903A810F0B5F9B9A154
:102B200003A810F0B1F9B8A1B84810F0ADF9B6FBA0
:102B3000F7F2B3A107A811F041FB07A9B34810F0C1
:102B4000A3F9B1A1B14810F09FF9B6FBF7F007FB6C
:102B50001062ABA107A811F031FB07A9AB4810F038
:102B600093F9ABA1A94810F08FF96068099910F0AA
:102B700097FC16D95946606810F088FC11D351466D
:102B8000D4F8C40010F08CFC0BD9D4F88401089957
:102B900010F086FC05D94946D4F8440210F076FCC2
:102BA00037D2022000EB85060A2E03D293A103A898
:102BB00010F06AF9324692A107A811F0FFFA07A9AE
:102BC00003A810F061F98FA103A810F05DF98EA1A0
:102BD0008E4810F059F9B6FBF7F289A107A811F059
:102BE000EDFA07A9894810F04FF987A1874810F03E
:102BF0004BF9B6FBF7F007FB106281A107A811F0B3
:102C0000DDFA07A9814810F03FF981A17F4810F053
:102C10003BF9A068099910F043FC16D95946A06801
:102C200010F034FC11D35146D4F8C80010F038FC31
:102C30000BD9D4F88801089910F032FC05D949461F
:102C4000D4F8480210F022FC37D2032000EB8506AE
:102C50000A2E03D269A103A810F016F9324668A122
:102C600007A811F0ABFA07A903A810F00DF965A1A8
:102C700003A810F009F964A1644810F005F9B6FB47
:102C8000F7F25FA107A811F099FA07A95F4810F0C1
:102C9000FBF85DA15D4810F0F7F8B6FBF7F007FB15
:102CA000106257A107A811F089FA07A9574810F038
:102CB000EBF857A1554810F0E7F8E068099910F0D3
:102CC000EFFB16D95946E06810F0E0FB11D35146EE
:102CD000D4F8CC0010F0E4FB0BD9D4F88C0108999F
:102CE00010F0DEFB05D94946D4F84C0210F0CEFBBB
:102CF00033D2042000EB85040A2C03D23FA103A8A1
:102D000010F0C2F822463EA107A811F057FA07A911
:102D100003A810F0B9F83CA13C4810F0B5F8B4FB9A
:102D2000F7F237A107A811F049FA07A9374810F0C0
:102D3000ABF835A1354810F0A7F8B4FBF7F007FB66
:102D400010422FA107A811F039FA07A92F4810F057
:102D50009BF82FA12D4810F097F803A810F0A0F8C9
:102D600070B12DA103A810F08FF82D4981F80080D3
:102D700003AA1521E81C09F09CFA0BB0BDE8F08FFE
:102D800028A103A810F080F81EA103A810F07CF879
:102D9000EEE72DE9F047A6B0002406468DF828405E
:102DA00022A00FAD0FC885E80F0024A013AD0FC8F7
:102DB00085E80F0025A017AD0FC885E80F0027A0F4
:102DC0001BAD0FC885E80F0028A00FC88DE80F00C5
:102DD0002AA021ABD0E90010CDE91F1029A007C817
:102DE00083E807002AA00FC804940594069457E0CE
:102DF000252E3166000000000000C84230000000AF
:102E0000256400002000000030303300C0040020A2
:102E10003030323000000000D2ECB3A300000000DC
:102E200068000020D5FDB3A300000000B5E7D1B9CC
:102E3000D0A3D7BCC4A3CABD00000000CEC2B6C890
:102E4000D0A3D7BCC4A3CABD00000000C8DDC1BF69
:102E5000D0A3D7BCC4A3CABD00000000C4DAD7E821
:102E6000D0A3D7BCC4A3CABD00000000C7EBCAE40E
:102E7000C8EBD0A3D7BCD6B53A000000CDA8B5C0EA
:102E8000A3BA0000B7B5BBD84144C2EBA3BA000057
:102E9000B4CBCFEED0A3D7BCCDEAB3C9210000009C
:102EA0000BAD07940894099485E80F00B0790125CB
:102EB000DFF8F883DFF8F893FE4F092801D01628D1
:102EC00049D100220321162009F0EDF90022042146
:102ED000162009F0E8F900220521162009F0E3F98F
:102EE00000220621162009F0DEF904AA0A21162084
:102EF00009F0DFF904AA0F21162009F0DAF904AA73
:102F00001021162009F0D5F904AA1121162009F084
:102F1000D0F904AA1221162009F0CBF904AA132132
:102F2000162009F0C6F904AA1421162009F0C1F9E7
:102F300004AA0B21162009F0BCF904AA0C211620C2
:102F400009F0B7F9387A30B93D72D8F8000007F0C7
:102F50008FFD89F80050B079032847D1707A012895
:102F60007ED100220421162009F09DF900220521BE
:102F7000162009F098F900220621162009F093F98D
:102F80000FAA0A21162009F094F96A460F2116208B
:102F900009F08FF904AA1021162009F08AF904AA71
:102FA0001121162009F085F904AA1221162009F032
:102FB00080F904AA1321162009F07BF904AA142130
:102FC000162009F076F904AA0B21162009F071F9F0
:102FD00004AA0C21162009F06CF9387A30B93D7238
:102FE000D8F8000007F044FD89F80050B0790428B3
:102FF00049D1707A012833D100220321162009F02B
:1030000052F900220521162009F04DF9002206216F
:10301000162009F048F913AA0A21162009F049F9E7
:103020006A460F21162009F044F904AA102116203F
:1030300009F03FF904AA1121162009F03AF904AA6F
:103040001221162009F035F904AA1321162009F0DF
:1030500030F904AA1421162009F02BF904AA00E083
:1030600096E00B21162009F024F904AA0C21162061
:1030700009F01FF9387A30B93D72D8F8000007F02E
:10308000F7FC89F80050B079062848D1707A0128F9
:103090007ED100220321162009F005F90022042127
:1030A000162009F000F900220521162009F0FBF88E
:1030B00017AA0A21162009F0FCF86A460F211620EB
:1030C00009F0F7F804AA1021162009F0F2F804AA72
:1030D0001121162009F0EDF804AA1221162009F09A
:1030E000E8F804AA1321162009F0E3F804AA142131
:1030F000162009F0DEF804AA0B21162009F0D9F8F1
:1031000004AA0C21162009F0D4F87D71387A30B960
:103110003D72D8F8000007F0ABFC89F80050B07998
:1031200005284AD1707A01287BD10022032116207C
:1031300009F0B9F800220421162009F0B4F80022A1
:103140000621162009F0AFF81BAA0A21162009F063
:10315000B0F86A460F21162009F0ABF804AA102136
:10316000162009F0A6F804AA1121162009F0A1F8EA
:1031700004AA1221162009F09CF804AA1321162093
:1031800009F097F804AA1421162009F092F800E03B
:1031900047E004AA0B21162009F08BF804AA0C21A1
:1031A000162009F086F87C713C7289F8004024AA48
:1031B0000021D8F8000007F0CCFBB0790B282BD108
:1031C000307A68B3002264231146104608F071F883
:1031D000307A717A303800EB8000D02202EB400068
:1031E0000844F871F879FDF7CBF900226423114601
:1031F000104608F05EF81FAA1021162009F059F8B1
:10320000FA79AFF2044107A810F0D8FF07AA1421F9
:10321000162009F04EF83C71B0790C2804D04EE02D
:103220003D7126B0BDE8F087737A0821302205A8E9
:103230002E2B05D0B37A2E2B02D0F37A2E2B61D110
:103240008DF828109DF82810715C2E299DF8281003
:1032500009D0715C9DF82830034403F8081C9DF8E0
:103260002810491CECE73144897800299DF8281082
:103270009DF8283031444978034403F8081C57D09E
:103280009DF828109DF8283031448978034403F8CC
:10329000071C9DF82810014401F8062C9DF8281001
:1032A000084400F8054C05A806E0000018000020BE
:1032B000600000209C0000200FF090FE7883B07921
:1032C0000D28AED121AA1121162008F0F2FF78793D
:1032D000A0B3798B262001F016FB7C717A8BAFF2BC
:1032E000E04107A810F06AFF07AA1321162008F092
:1032F000E0FF0BAA1221162008F0DBFF642003F088
:103300006FFD8EE78DF828109DF82810715C00295C
:103310009DF8281009D0715C9DF82830034403F80B
:10332000081C9DF82810491CECE7014401F8082C02
:103330009DF82810014401F8072CAAE7FFE7387927
:10334000FE4E40B3B87924287DD200226423114672
:10335000104607F0AEFFB879401CC0B2FDF710F977
:10336000002301221946184607F0A3FF1FAA1021C7
:10337000162008F09EFFBA79AFF27C5107A8521CC4
:1033800010F01CFF07AA1421162008F092FF3078D5
:10339000F0B37E8B6BE0307808B17C8B0BE0788BE0
:1033A00010F007F8E649FA7951F822100FF0ADFE57
:1033B00010F015F884B22146F87901F0A4FA2246FB
:1033C000AFF2C45107A810F0F9FE07AA1321162086
:1033D00008F06FFF0BAA1221162008F06AFF788B05
:1033E0000FF0E7FFD7490FF090FED749FA7901EBCC
:1033F0008201C1F87C01F879401EC11700EB917081
:10340000C0F38700FFF706FA0A2003F0E9FC00E0AA
:1034100009E03D72D8F8000007F02AFB1021CB48E4
:1034200004F061FC48E0B879401CC1B20220FDF70D
:1034300031F90646B879401CC1B20320FDF72AF9DC
:103440008246304600E028E00FF0B3FF06465046C3
:103450000FF0AFFF31460FF058FE0646788B0FF0A5
:10346000A8FF31460FF01FFE0FF0B9FF86B2B87902
:103470003146401C01F047FA3246AFF27C6107A8A2
:1034800010F09CFE07AA1321162008F012FF6420FA
:1034900003F0A6FCB879401CB871B87924287FF4F1
:1034A00030AFBC710BAA1221162008F002FF3D724A
:1034B000D8F8000007F0DCFA89F80050B1E62DE9F1
:1034C000FF47002604468DF80C60AFF61840D0E99F
:1034D0000010CDE900100296A0799D4F4FF0010930
:1034E0000B2824D1207A48281CD1607A6F2819D162
:1034F000A07A702816D1E07A652813D1207B202885
:1035000010D1607B47280DD1A07B72280AD1E07BC7
:10351000612807D1207C6E2804D1607C642801D109
:1035200087F802906A460B21122008F0C2FEA079AB
:10353000DFF820820C2818D18DF80C6040460BE093
:103540009DF80C109DF80C202144097A81549DF8B7
:103550000C10491C8DF80C109DF80C100A29EFD3A3
:103560006A460C21122008F0A4FE7A4DA0790A3593
:103570000D2845D18DF80C600BE09DF80C009DF8EE
:103580000C102044007A68549DF80C00401C8DF803
:103590000C009DF80C000A28EFD3287898F800203A
:1035A0004146904227D168784A78904223D1A87842
:1035B0008A7890421FD1E878CA7890421BD1287946
:1035C0000A79904217D168794A79904213D1A87943
:1035D0008A7990420FD1E879CA7990420BD1287A42
:1035E0000A7A904207D1687A98F80910884202D185
:1035F00008B187F803906A460D21122008F059FEA1
:10360000A079092874D1E079102871D1207A022894
:103610006ED1607A61286BD1B87800286AD0F878CA
:10362000002869D0132008F0F5FDBE70FE7002AAD4
:103630000B21122008F03DFE02AA0C21122008F0F6
:1036400038FE02AA0D21122008F033FE012004F0FA
:1036500043FA2978482004F081F969784C2004F075
:103660007DF9A978502004F079F9E978542004F024
:1036700075F92979582004F071F969795C2004F012
:103680006DF9A979602004F069F9E979642004F002
:1036900065F9297A682004F061F9697A6C2004F0F0
:1036A0005DF92D4C0221204604F01DFB002264230D
:1036B0001146104607F0FDFD0221204604F015FBDF
:1036C000002264231146104607F0F3FD002004F0A9
:1036D00003FA02AA0B21122008F0EBFD02AA0C212A
:1036E000122008F0E6FD02AA0D21122008F0E1FDEB
:1036F000BDE8FF87142000E0152008F08BFDE8E707
:103700002DE9F04F8BB004460025142103A80FF0DB
:10371000B0FBAFF66060D0E900100095CDE9011074
:10372000482004F022F9000A60F30F25482004F035
:103730001CF960F30705ADF80C500FE061000020A4
:10374000900C002000007A449009002000100140F5
:103750009C0000202B380020000801404C200895D8
:1037600004F003F9000A60F30F254C2004F0FDF883
:1037700060F30705ADF80E50AB46502004F0F5F8A5
:10378000000A60F30F25502004F0EFF860F30705FE
:10379000ADF810505420099504F0E7F8000A60F3E2
:1037A0000F25542004F0E1F860F30705ADF812503E
:1037B000AA46582004F0D9F8000A60F30F255820D3
:1037C00004F0D3F860F30705ADF81450A9465C2067
:1037D00004F0CBF8000A60F30F255C2004F0C5F874
:1037E00060F30705ADF81650A846602004F0BDF858
:1037F000000A60F30F25602004F0B7F860F30705B6
:10380000ADF818502F46642004F0AFF8000A60F3BA
:103810000F25642004F0A9F860F30705ADF81A50ED
:103820002E46682004F0A1F8000A60F30F256820F6
:1038300004F09BF860F30705ADF81C506C200A9566
:1038400004F093F8000A60F30F256C2004F08DF863
:1038500060F30705ADF81E50A079032828D1217A1E
:10386000089881421FD1617A59451CD1A17A0998E3
:10387000814218D1E17A514515D1217B494512D1B8
:10388000617B41450FD1A07BB8420CD1E07BB042B7
:1038900009D1217C0A98814205D1607CA84202D1DD
:1038A000F9480121417001AA0321102008F001FD0F
:1038B000A079082817D1E07910280CD1207A0228A5
:1038C00009D1607A612806D1EF48417819B1002109
:1038D0004170012000E0112008F09CFC6A460321A1
:1038E000102008F0E6FCA0790A2803D00C2801D0AB
:1038F000052804D16A460321102008F0DAFC0BB039
:10390000BDE8F08FF8B5002504468DF80050DE4E76
:1039100001277775807913282FD1207ADB492E284B
:1039200009D030280AD0322811D0332811D08DF890
:103930000050D7491CE00F70012101E00D700021FB
:10394000252000F0E0FFC82003F04AFA15E002202D
:1039500000E00320F074F8BD9DF800009DF8002001
:103960002044007A88549DF80000401C8DF8000027
:103970009DF800000B28EFD3B774A1790820172910
:103980001AD18DF80000C04A1E320AE0615C9DF831
:103990000030134403F8081C9DF80010491C8DF8F2
:1039A00000109DF80010615C00299DF80010EDD119
:1039B000114401F8085CB772A17932291AD18DF847
:1039C0000000B14926310AE0A25C9DF800300B44AA
:1039D00003F8082C9DF80020521C8DF800209DF85B
:1039E0000020A25C002A9DF80020EDD1114401F8CE
:1039F000085CF772A17936291AD18DF80000A24926
:103A00002E310AE0A25C9DF800300B4403F8082C2C
:103A10009DF80020521C8DF800209DF80020A25C2B
:103A2000002A9DF80020EDD1114401F8085C37739D
:103A3000A27930210C2A3ED1934B627A36332E2A5A
:103A400008D0A27A2E2A05D0E27A2E2A02D08DF84A
:103A500000003FE08DF800000AE0A25C9DF800C085
:103A60009C440CF8082C9DF80020521C8DF8002076
:103A70009DF80020A25C2E2A9DF80020EDD1224462
:103A80009278002A9DF800209DF800C022445278C8
:103A90009C440CF8082C27D09DF800209DF800C00D
:103AA000224492789C440CF8072C9DF800201A447C
:103AB00002F8065C7773A279022A1BD059E0A25C57
:103AC0009DF800C09C440CF8082C9DF80020521C66
:103AD0008DF800209DF80020A25C002A9DF80020AF
:103AE000EDD11A4402F8081C9DF800201A4402F88F
:103AF000071CDAE7644B627A3E332E2A08D0A27A9A
:103B00002E2A05D0E27A2E2A02D08DF800003FE05E
:103B10008DF800000AE0A25C9DF800C09C440CF8FF
:103B2000082C9DF80020521C8DF800209DF80020E4
:103B3000A25C2E2A9DF80020EDD122449278002A22
:103B40009DF800209DF800C0224452789C440CF857
:103B5000082C27D09DF800209DF800C022449278C0
:103B60009C440CF8072C9DF800201A4402F8065CCF
:103B7000B773A279042A1BD059E0A25C9DF800C05B
:103B80009C440CF8082C9DF80020521C8DF8002055
:103B90009DF80020A25C002A9DF80020EDD11A4477
:103BA00002F8081C9DF800201A4402F8071CDAE706
:103BB000354A637A46322E2B08D0A37A2E2B05D0B5
:103BC000E37A2E2B02D08DF800003FE08DF8000044
:103BD0000AE0E35C9DF800C094440CF8083C9DF8B2
:103BE00000305B1C8DF800309DF80030E35C2E2B1C
:103BF0009DF80030EDD123449B78002B9DF80030D8
:103C00009DF800C023445B7894440CF8083C27D00E
:103C10009DF800309DF800C023449B7894440CF834
:103C2000073C9DF800301A4402F8065CF773A2794D
:103C3000062A1BD05FE0E35C9DF800C094440CF8BA
:103C4000083C9DF800305B1C8DF800309DF800307A
:103C5000E35C002B9DF80030EDD1134403F8081C01
:103C60009DF80030134403F8071CDAE7064B627A2C
:103C70004E332E2A0ED0A27A2E2A0BD0E27A2E2A8A
:103C800008D08DF8000050E09C000020610000206A
:103C9000203800208DF800000AE0A25C9DF800C0EA
:103CA0009C440CF8082C9DF80020521C8DF8002034
:103CB0009DF80020A25C2E2A9DF80020EDD1224420
:103CC0009278002A9DF800209DF800C02244527886
:103CD0009C440CF8082C32D09DF800209DF800C0C0
:103CE000224492789C440CF8072C9DF800201A443A
:103CF00002F8065C3774A279082A7FF42CAE637A46
:103D0000FE4A2E2B21D0A37A2E2B1ED0E37A2E2B07
:103D10001BD050E0A25C9DF800C09C440CF8082C1D
:103D20009DF80020521C8DF800209DF80020A25C18
:103D3000002A9DF80020EDD11A4402F8081C9DF8D5
:103D400000201A4402F8071CCFE78DF800009DF808
:103D50000000205C2E289DF8000009D0205C9DF812
:103D60000030134403F8080C9DF80000401CECE7F9
:103D70002044807800289DF800002044407814D02A
:103D80009DF80010114401F8080C9DF800009DF802
:103D9000001020448078114401F8070C9DF80000C1
:103DA000104400F8065C7774F8BD9DF800301344A9
:103DB00003F8080C15E08DF800009DF80000205C69
:103DC00000289DF8000009D0205C9DF800301344C5
:103DD00003F8080C9DF80000401CECE7104400F8C4
:103DE000081C9DF80000104400F8071CD6E72DE9D8
:103DF000F041C24F0124563F7C75204603F06CFE13
:103E0000B87C002600287CD0F87CBD4DDFF8F48219
:103E1000012804D0022848D0032845D18BE0287817
:103E2000E978303800EB4002C2EBC01001EBC00271
:103E3000697864204143A87800EB800001EB4000E2
:103E40001044A0F5A050D03881B2282003F086FDA0
:103E50002879E979303800EB4002C2EBC01001EB61
:103E6000C002697964204143A87900EB800001EB2E
:103E700040001044A0F5A050D03881B2402003F09B
:103E80006DFD287AA97A303800EBC00202EB0010F1
:103E900001EB8001687A00EB800208EB42000844E5
:103EA00081B2442003F05AFD8BE02878E97830385D
:103EB00000EB4002C2EBC01001EBC0026978642045
:103EC0004143A87800EB800001EB40001044A0F5CE
:103ED000A050D03881B2702003F040FD2879E979F4
:103EE000303800EB4002C2EBC01001EBC002697930
:103EF00064204143A87900EB800001EB40001044AE
:103F000000E060E0A0F5A050D03881B2742003F04A
:103F100025FD287AA97A303800EBC00202EB0010A8
:103F200001EB8001687A00EB800208EB4200084454
:103F300081B2782042E02878E978303800EB4002FE
:103F4000C2EBC01001EBC002697864204143A8783D
:103F500000EB800001EB40001044A0F5A050D038E9
:103F600081B27C2003F0FAFC2879E979303800EB43
:103F70004002C2EBC01001EBC002697964204143EA
:103F8000A87900EB800001EB40001044A0F5A050A0
:103F9000D03881B2802003F0E1FC287AA97A303849
:103FA00000EBC00202EB001001EB8001687A00EB2D
:103FB000800208EB4200084481B2842003F0CEFC6A
:103FC000FC743C75BE74B87A48B14C4838380FF070
:103FD00005F881B2082003F0C1FC3C75BE72F87A86
:103FE00048B1464830380EF0F9FF81B2102003F096
:103FF000B5FC3C75FE72387B48B1404828380EF05D
:10400000EDFF81B20C2003F0A9FC3C753E73787B78
:1040100048B13A4820380EF0E1FF81B2182003F091
:104020009DFC3C757E73B87B48B1344818380EF05F
:10403000D5FF81B21C2003F091FC3C75BE73F87B68
:1040400048B12E4810380EF0C9FF81B2202003F08D
:1040500085FC3C75FE73387C48B1284808380EF062
:10406000BDFF81B2142003F079FC3C753E74787C6E
:1040700040B122480EF0B2FF81B2242003F06EFC62
:104080003C757E74204C0221204603F02CFE002259
:1040900064231146104607F00CF90221204603F074
:1040A00024FE002264231146104607F002F9BDE801
:1040B000F041002003F010BD10B504464078B1284F
:1040C00066D1A078112863D120791A2808D120461A
:1040D000FEF7D2F96078B1285AD1A078112857D1CB
:1040E0002079182808D12046FEF74FFB6078B128C8
:1040F0004ED1A07811284BD1207907E0F2000020A2
:1041000020380020F0FDFFFF00080140162808D1EC
:104110002046FEF73EFE6078B12839D1A0781128FC
:1041200036D12079122808D12046FFF7C8F96078E7
:10413000B1282DD1A07811282AD12079102808D1B2
:104140002046FFF7DDFA6078B12821D1A078112848
:104150001ED1207901280BD12046FFF7D3FB6078D0
:10416000B12815D1A078112812D12079012809D0C1
:10417000C0B202280CD1A079012809D12046BDE89F
:10418000104034E6A0790A2802D1FF4901200875C1
:1041900010BDF0B585B000252C460095019502951F
:1041A00003952820049503F0E0FB000A60F30F2438
:1041B000282003F0DAFB60F307042246F3A103A8EA
:1041C0000FF0FCFF03A968460EF05EFE402003F0EE
:1041D000CCFB000A60F30F24402003F0C6FB60F321
:1041E00007042246E9A103A80FF0E8FF03A96846E7
:1041F0000EF04AFE442003F0B8FB000A60F30F24DF
:10420000442003F0B2FB60F307042246DFA103A8B9
:104210000FF0D4FF03A968460EF036FEDA4E307D6B
:1042200048B16A461321012008F043F86A46072185
:104230000F2008F03EF8082003F097FB000A60F317
:104240000F24082003F091FB60F307042246CFA15E
:1042500068460FF0B3FF307D48B16A461721012050
:1042600008F027F86A460B210F2008F022F81020EA
:1042700003F07BFB000A60F30F24102003F075FBB2
:1042800060F307042246C1A168460FF097FF307D16
:1042900048B16A463221012008F00BF86A461E2117
:1042A0000F2008F006F80C2003F05FFB000A60F313
:1042B0000F240C2003F059FB60F307042246B3A13E
:1042C00068460FF07BFF307D48B16A4636210120F9
:1042D00007F0EFFF6A4627210F2007F0EAFF1820BA
:1042E00003F043FB000A60F30F24182003F03DFBAA
:1042F00060F3070420460FF05CF8A54F39460EF036
:1043000004FF0FF080F802460B46A24968460FF002
:1043100055FF6A460B21012007F0CBFF6A461721A3
:104320000F2007F0C6FF307D20B16A460C21012026
:1043300007F0BFFF1C2003F018FB000A60F30F24F6
:104340001C2003F012FB60F3070420460FF031F845
:1043500039460EF0DAFE0FF056F802460B468D494C
:1043600068460FF02BFF01216A46084607F0A1FFBF
:104370006A4626210F2007F09CFF307D20B16A4657
:104380000221012007F095FF202003F0EEFA000A39
:1043900060F30F24202003F0E8FA60F307042046BE
:1043A0000FF007F839460EF0B0FE0FF02CF8024679
:1043B0000B46784968460FF001FF6A460321012049
:1043C00007F077FF6A462C210F2007F072FF307D3F
:1043D00020B16A460421012007F06BFF142003F08E
:1043E000C4FA000A60F30F24142003F0BEFA60F34D
:1043F000070420460EF0DDFF39460EF086FE0FF072
:1044000002F802460B46634968460FF0D7FE6A463B
:104410000521012007F04DFF6A4628210F2007F0F3
:1044200048FF307D20B16A460621012007F041FF98
:10443000242003F09AFA000A60F30F24242003F0EA
:1044400094FA60F3070420460EF0B3FF39460EF0ED
:104450005CFE0EF0D8FF02460B464E4968460FF050
:10446000ADFE6A460721012007F023FF6A462A2194
:104470000F2007F01EFF307D002805D06A46082176
:10448000012007F016FF357505B0F0BD2DE9FF419D
:10449000002041490090019002900390087004466A
:1044A0004FF410713D480EF0E4FC3D493B480EF0DE
:1044B0000CFD1A2007F0AEFE38480EF0F1FC0C217E
:1044C000B0FBF1F0304D374EDFF8D080288305F196
:1044D0001C070EE004EB440108EB8100C178397041
:1044E000C079787028481C300EF078FDE88230558D
:1044F000641C288B8442EDDB26493278EA82083935
:1045000068460FF05BFE6A4614211A2007F0D1FEC0
:10451000254CE88A04EB800050F8040C0EF073FF81
:1045200002460B461B4968460FF048FE6A460A21C0
:104530001A2007F0BEFEE88A04EB8000D0F87C0168
:104540000EF061FF0B4613490246083168460FF032
:1045500035FE6A460B211A2007F0ABFEE88A04EB11
:104560008000D0F83C020EF04EFF02460B4609498F
:1045700068460FF023FE6A460C211A2007F099FEC8
:10458000E88A04EB800011E09C0000202564000014
:104590000000C842A0280008680000200007002092
:1045A000C0040020FC37002090090020D0F8BC0097
:1045B0000EF029FF02460B465C4968460FF0FEFDEF
:1045C0006A460D211A2007F074FEE88A04EB800089
:1045D000D0F83C7238460EF002FF86B230460EF03C
:1045E000E8FE39460EF05CFDB0F17C5F01DB761C25
:1045F000B6B24E493246103168460FF0DFFD6A46CA
:1046000022211A2007F055FEE88A494904EB800070
:10461000D0F83C02884204DD0EF0E1FE02461B2188
:1046200024E044494FF0000288424FF01B014FF054
:104630001A000BDD07F074FEE88A04EB8000D0F866
:104640003C020EF0CCFE02461A210FE007F068FE95
:104650001A210022084607F063FEE88A04EB800076
:10466000D0F83C020EF0BBFE024601211A2007F0F2
:1046700057FE00220321162007F015FE0022042118
:10468000162007F010FE00220521162007F00BFE71
:1046900000220621162007F006FE03AA0A21162092
:1046A00007F007FE03AA0F21162007F002FE03AA57
:1046B0001021162007F0FDFD03AA1121162007F096
:1046C000F8FD03AA1221162007F0F3FD03AA132117
:1046D000162007F0EEFD03AA1421162007F0E9FDCD
:1046E00003AA0B21162007F0E4FD03AA0C211620D3
:1046F00007F0DFFD03AA0321182007F0DAFD03AA63
:104700000B21122007F0D5FD03AA0C21122007F07F
:10471000D0FD03AA0D21122007F0CBFD03AA03212F
:10472000102007F0C6FDBDE8FF810000A0280008AA
:104730000000A0420000A041A5490A88A5490988B7
:1047400060B1012810D14EF6EE6009B11AB107E050
:10475000824209D006E0814204D005E022B109B1CD
:10476000AB207047012070470020704770B50546A8
:104770000E460120FFF7E0FFAB280ED0944901EB75
:10478000C0249449891E01EBC02003E02168491C24
:1047900004D0241D8442F9D3802070BD31462046C8
:1047A00003F0E6FB0428F8D12946A01CBDE87040C0
:1047B00003F0DEBB70B505460E4601240020FFF76E
:1047C000BBFFAB2814D0834A8149921E01EBC02164
:1047D00002EBC022891C08E01088A84204D132F8FC
:1047E000020C3080002402E0121F8A42F4D82046D6
:1047F00070BD2DE9F047764E0024651E3188DFF844
:10480000D4A1BAF80000744F744A2B0CF1B3A1F68E
:10481000EE61B1F5604116D001F6EF61B1F5005FD0
:104820000DD100286DD0A0F56E41EE3907D130468C
:1048300003F00FFB042804D1002150460DE000F0E6
:1048400070F8BDE8F08758B19842F8D1504603F0AF
:1048500000FB0428F5D10021304603F089FBF0E786
:104860009046F18837F81400814200D125B2AC425D
:104870000ED05A49FFF79EFF012809D037F81400DF
:10488000B8F80010FFF772FF042800E00EE0D8D15E
:10489000641CA4B2272CE4D30021304603F068FB4B
:1048A0000428CED106E003F0D4FACAE70028C6D027
:1048B000984201D15046F6E7DFF81891904609F189
:1048C0000609B9F8001037F81400814200D125B26A
:1048D000AC420CD04149FFF76DFF012807D037F8F3
:1048E0001400B8F80010FFF741FF0428A9D1641C98
:1048F000A4B2272CE5D30021504603F039FB04284D
:104900009FD13046CFE770B50C460546FFF72EFF26
:10491000802805D121462846BDE8704000F014B833
:1049200070BD10B52A4C204603F093FA04280AD132
:104930000021204603F01CFB042804D1BDE81040F0
:10494000244803F086BA10BD2DE9F04780460024C4
:104950000D462046FFF7F0FE1D491E4E012802D0ED
:1049600018B1AB206DE70F4601E037460E464EF614
:10497000EE61384603F0FCFA0428F3D1294640469C
:10498000FFF7F4FE0428EDD1134DDFF8509035F811
:10499000140040450CD01149FFF70CFF012807D047
:1049A00035F81400B9F80010FFF7E0FE0428D9D15B
:1049B000641CA4B2272CEAD3304603F04AFA042838
:1049C000D0D13846BDE8F047002103F0D1BA00004D
:1049D00000F0000800F8000840090020FA0000205C
:1049E00010B5274C27A12068C26924300FF0E6FBE0
:1049F0002068BDE8104024A124300EF045BA10B55F
:104A0000012002F062FE022002F05FFEBDE81040CD
:104A1000032002F05ABE10B5012002F065FE02200C
:104A200002F062FEBDE81040032002F05DBE704758
:104A300070470421164803F058B90421144803F0C4
:104A400052B90221124803F04EB90221104803F076
:104A50004CB94FF400710F4803F045B94FF40071A1
:104A60000C4803F042B94FF4C874FFF7C8FF204662
:104A700001F0B4F9FFF7CFFF204601F0AFF9F4E7FA
:104A8000FC000020256400002E74787400000000F3
:104A900000080140000C01402DE9F043ADF6940DF3
:104AA0004FF48065294668460EF0E3F914210DF6AF
:104AB00054000EF0DEF90020CDF86808CDF86C083F
:104AC000CDF870088EA10DF654000EF0DDF98D4C76
:104AD0008DA12068C2690DF668000FF06FFB0DF61E
:104AE00068010DF654000EF0CFF988A10DF65400C0
:104AF0000EF0CAF9874E4021304603F0F4F80DF26B
:104B00002461002008F0AFF9010001D082A007E085
:104B10007BA10DF6740008F0CBFC010006D087A045
:104B20000FF03CFB0DF6940DBDE8F08321681122D7
:104B30000DF58060243108F0A3F918B188A00FF0BA
:104B40002DFBEFE74021B046304603F0CEF80DF6DE
:104B500054000BF092F8814600F0CAF8844C2068AB
:104B60000A300EF03BFAC7B22068401D0EF036FA4C
:104B7000C6B220680EF032FA80B23A4631460BF0E7
:104B8000F5F8484600F0B4F82C46294668460EF081
:104B900070F94546DDF80814DDF80C04401AA0420F
:104BA0004FF04001284634D203F09DF80DF58160A6
:104BB0000DF5096303C80A1A69460DF5806008F00F
:104BC00010FA010002D06BA00FF0E8FA402128464D
:104BD00003F08BF8214668460BF08AF800F088F85D
:104BE000214668460EF045F90BF045F800F080F8D4
:104BF0004021284603F077F80DF5806008F0B1FBFE
:104C00000021084608F02FF94021284603F06DF8EE
:104C100088E703F068F80DF50963224669460DF54B
:104C2000806008F0DEF9010002D052A00FF0B6FA61
:104C30004021284603F059F8214668460BF058F801
:104C400000F056F8214668460EF013F9A2E738B591
:104C5000FFF7D5FE0AF0BDFF40212E4803F045F8CE
:104C60000AF0ECFF10B948A00FF098FAC82001F044
:104C7000B5F80AF0A0FF00F03BF8494D49A00FF04D
:104C80008DFA54A00FF08AFA0A2001F0A7F80BF071
:104C900059FB0028F8D1C82001F0A0F800246420B6
:104CA00001F09CF80DF043FD10B1641C052CF6D307
:104CB00028780228E2D90020009068460AF0C8FF50
:104CC00000990446C90A46A00FF068FA204600F091
:104CD0000FF8FFF7E1FE4DA00FF060FAFFF78FFE2F
:104CE0000A2001F07BF80BF02DFB0028F8D038BD2E
:104CF000002803D001464AA00FF050BA70470000C8
:104D00002F000000FC000020256400002E545854A1
:104D100000000000000C014046696C655379737413
:104D2000656D204D6F756E746564204661696C65B4
:104D30006420282564290D0A000000004F70656E6C
:104D400020526F6F74204469726563746F727920AA
:104D50004572726F7220282564290D0A0000000038
:104D60006F70656E206572726F72200A0D00000010
:104D7000000100206F70656E206572726F72203ABC
:104D8000202564200A0D0000434833373454204462
:104D90006574656374204661696C65640D0A000082
:104DA000410400200D0A2A2A2A2A2A2A2A2A2A2AE3
:104DB0002A2A2A2A2A2A2A2A2A2A2A2A2A2A2A2A53
:104DC0002A2A2A2A2A2A2A2A2A2A2A2A2A2A2A2A43
:104DD0002A0D0A00B2E5C8EB55C5CC0D0A0000004B
:104DE00055C5CCC8DDC1BF203D202575204D4220D2
:104DF0000D0AD5FDD4DABFBDB1B4CAFDBEDDD6C142
:104E000055C5CC2E2E2E2E2E2E0A0D00B2D9D7F738
:104E1000CDEAB3C9A3ACB0CEB3F655C5CC0D0A00EC
:104E20004572726F723A20253032580D0A00000028
:104E300010B538200FF062FECA49086058B11E2034
:104E40000FF05CFEC8490028086006D1C7A0BDE885
:104E500010400FF0A3B9CBA0F9E710BDF0B5C14CDD
:104E6000CF4999B020680022CE4EC0E90421CE4936
:104E70003512C0E90021C0E90765CCA00FF08EF91A
:104E8000D0A00FF08BF9D54F04E0384600F056FB68
:104E90002168C8612068C169B142F6D00029F4D008
:104EA000CFA00FF07BF9CFA00FF078F940F2E736F2
:104EB00004E0304600F042FB216808622068016A85
:104EC000A942F6D00029F4D0C5A00FF067F9CDA013
:104ED0000FF064F904E0092000F030FB21688861DC
:104EE000206881690F29F6D00029F4D0BCA00FF00A
:104EF00055F9C9A00FF052F96946CEA00DF0EEFFAA
:104F0000CD4D06E0CDA00FF049F96946C9A00DF0DE
:104F1000E5FF68460FF0DCFD00222B460EF09EFAFE
:104F2000F0D368460FF0D4FD002213460EF07EFA4F
:104F3000E8D368460FF0CCFD22680B46C2E90401B5
:104F40000246C3A00FF02AF9C2A00FF027F964218E
:104F500068460DF08EFF02E0B8A00FF01FF9694619
:104F6000B4A00DF0BBFF68460FF0B2FD00222B4647
:104F70000EF074FAF0D368460FF0AAFD0022134633
:104F80000EF054FAE8D368460FF0A2FD22680B46F3
:104F9000C2E900010246B6A00FF000F9FFF720FDBC
:104FA00019B0F0BD2DE9F041ADF5A26D0646002423
:104FB000254634210DF2BC400DF05BFF34210DF28B
:104FC00054400DF056FF34210DF591600DF051FF66
:104FD00089A9002007F047FF010001D0A6A007E043
:104FE000AEA10DF59E6008F063FA010003D0ACA0FD
:104FF0000FF0D4F80EE011223146684607F040FF6A
:10500000584E0DF254480DF2BC47002874D0ADA0A4
:105010000FF0C4F8684608F0A4F90021084607F02C
:1050200022FF01200DF5A26DBDE8F0814855641CFA
:105030006D1C00E04146385D3D2803D00A2801D0B0
:105040000028F3D1002008F805000DF5916201E079
:105050001154401C641C395D0A2901D00029F7D184
:10506000002425469BA10DF254400DF020FF00B313
:105070009CA10DF254400DF01AFF28B39DA10DF232
:1050800054400DF014FF50B39DA10DF254400DF0AB
:105090000EFF90B39CA10DF254400DF008FF0028C4
:1050A00035D09AA10DF254400DF001FF002843D1F4
:1050B00036E00DF591600FF00BFD32680B46C2E94A
:1050C0000001024693A014E00DF591600FF000FD81
:1050D00032680B46C2E90201024693A009E00DF5D1
:1050E00091600FF0F5FC32680B46C2E904010246FC
:1050F00092A00FF053F81DE01EE0FFE70DF5916060
:105100000DF06CFF31688861014691A010E00DF54B
:1051100091600DF063FF3168C86101468FA007E020
:105120000DF591600DF05AFF3168086201468EA0BE
:105130000FF034F8FFF754FCDDE90201884208D093
:105140006A4632210DF2BC4008F09BFC00287FF437
:1051500071AF684608F005F90021084607F083FEA4
:1051600000205FE7FC000020000100206D616C6CF6
:105170006F632074696D655F6E6F77206572726F03
:10518000720A0D00636F6E666967757265206D61E6
:105190006C6C6F63206572726F72210A0D000000E3
:1051A00000E06F40FFFF0F00FEFF2F410A0DC5E436
:1051B000D6C3B5E7B3D8B5C4CFE0B9D8B2CECAFD2F
:1051C0000A0D00000A0DC9E8D6C3B5E7B3D84944B3
:1051D0002835CEBBCAFDD7D6293A00009F860100EC
:1051E000202564000A0DC9E8D6C3B5E7B3D8B5C415
:1051F000B6EEB6A8C8DDC1BF28B5A5CEBBA3BA41DF
:1052000048293A000A0DC9E8D6C3B3E4B3E4B7C5E8
:10521000B4CECAFDA3BA00000A0DC9E8D6C3B3E4F0
:10522000B5E7CAB1BCE428B5A5CEBBA3BAD0A1CA24
:10523000B1293A0025730000000059400A0DC7EB60
:10524000CAE4C8EBBACFC0EDCAFDD6B5A3BA000018
:10525000202567000A0DB7C5B5E7CFC2CFDEB5E799
:10526000D1B928B5A5CEBBA3BA56293A0000000093
:105270002025670A0D0A0D0046696C655379737421
:10528000656D204D6F756E746564204661696C654F
:105290006420282564290D0A000000002F0000006A
:1052A0004F70656E20526F6F74204469726563742D
:1052B0006F7279204572726F7220282564290D0A59
:1052C000000000006F70656E206572726F72200AB8
:1052D0000D0000006C6F7765725F766F6C746167AC
:1052E0006500000075707065725F766F6C74616741
:1052F000650000006368617267655F74696D6500D1
:1053000074696D657300000069640000766F6C75E8
:105310006D6500006C6F7765725F766F6C746167A6
:10532000653D2566200D0A0075707065725F766FA9
:105330006C746167653D2566200D0A0063686172C3
:1053400067655F74696D653D2566200D0A00000084
:1053500074696D65733D2564200D0A0069643D25FF
:1053600064200D0A00000000766F6C756D653D25A8
:1053700064200D0A0000000000F0C1F800F088F879
:1053800000F047FA08F097FFFFF752FD1E4C4FF46C
:10539000807566151DA00EF001FF28A00EF0FEFE20
:1053A0001AA00EF0FBFE2946204602F088FC58B1F8
:1053B0003146204602F083FCE0B100220A23114668
:1053C000104605F076FFEEE74021204602F08BFC08
:1053D00000F057FB26A0FFF7E5FD20B127A00EF057
:1053E000DDFEFFF740FB01F09BFA0028D2D0FFF76B
:1053F0003AFBCFE71EA0FFF7D5FD08B1FFF733FB5F
:10540000FFF725FCC6E70000000C01400A0D2A2A20
:105410002A2A2A2A2A2A2A2A2A2A2A2A2A2A2A2AEC
:105420002A2A2A2A2A2A2A2A2A2A2A2A2A2A2A2ADC
:105430002A2A2A2A2A2A2A2A2A0A0D000A0D31A1F2
:10544000A2B0B4CFC2B0B4BCFC31BFAACABCB2E2F5
:10545000CAD40A0D32A1A2B0B4CFC2B0B4BCFC32DF
:10546000BFBDB1B4CAFDBEDDB5BD55C5CC0A0D008A
:10547000636F6E662E747874000000006765745F59
:10548000636F6E66206572726F200D0A0000000067
:1054900010B5F3A00EF082FEBDE81040FCA00EF0A7
:1054A0007DBEF8B501217C2003F0C9FC02F0E0F8D4
:1054B0004FF480700425ADF800008DF803500324EC
:1054C0008DF802406946FE4E304602F0A2FBE8012C
:1054D000ADF800008DF803508DF802406946304663
:1054E00002F097FB0120ADF8000010208DF80300BA
:1054F0008DF802406946F34802F08BFBF8BD10B509
:10550000FFF7CFFF02F0B4F8FBF7E4FBEE484FF4EF
:105510007A710068B0FBF1F0B0F1807F0DD220F01D
:105520007F414FF0E020491E4161E84AF02182F8B6
:10553000141D002181610721016110BD2DE9F04793
:10554000002442F2107986B005464FF47A7A484535
:1055500001D305260CE0554501D3042608E0642D4F
:1055600001D3032604E00A2D01D3022600E0012620
:10557000D74FE8462021384602F048FF0028F9D0EE
:10558000384602F0FAFE48F82400641C08EB840058
:1055900050F8040C30380A2804D32946CDA00EF068
:1055A000FDFD641EB442E5D34D451DD3009942F282
:1055B000107030394143019800EB4002C2EBC0103B
:1055C00001EBC001029800EBC00202EB001001EBFE
:1055D0008001039800EB800001EB4000049908442F
:1055E000A0F55040503836E0554515D30098039942
:1055F000303800EB4002C2EBC01001EBC002019951
:1056000064204143029800EB800001EB400010440D
:10561000A0F5A050D0381EE0642D0DD3009802995B
:10562000303800EBC00202EB001001EB8001019862
:10563000B44A00EB800008E00A2D0AD3DDE900013E
:10564000303800EB80006FF02F0202EB400008447E
:1056500001E000983038A84204D92946AAA00EF0EB
:105660009DFDFF2006B0BDE8F0872DE9F0476427D7
:10567000B946B846ADA00EF091FDB8A00EF08EFD73
:1056800040F6980A03E05046FFF758FF04B2002C9A
:10569000F9DD5445F7DC2146B7A00EF07FFDB7A039
:1056A0000EF07CFD03E00C20FFF748FF06B2002E51
:1056B000F9DD0C2EF7DC3146AFA00EF06FFDB5A082
:1056C0000EF06CFD03E01F20FFF738FF05B2002D40
:1056D000F9DD1F2DF7DC2946B4A00EF05FFDB4A064
:1056E0000EF05CFD03E01720FFF728FF07B2182F2C
:1056F000F9D23946ADA00EF051FDB4A00EF04EFD2A
:1057000004E03B20FFF71AFF0FFA80F94846B9F191
:105710003C0FF6D2014698A00EF040FDB2A00EF06C
:105720003DFD04E03B20FFF709FF0FFA80F84046FB
:10573000B8F13C0FF6D201468FA00EF02FFDB4F564
:10574000FA6F0ED0A4F2D170C11700EB9170012155
:1057500001EBA000211AA1F5FA61A20703D0A94A22
:1057600003E00020F6E7A74A343202EB8602B723B3
:1057700052F8042C584302EB400040F26D1201FB3A
:10578000025108444FF461614F43C9EB091107EB23
:10579000810202EB0801401E40F2A322504301EBBC
:1057A000C01060E710B502F055F9FFF75EFF02F098
:1057B0001FF9BDE8104002F04DB910B501214FF0BE
:1057C000C05003F045FB012002F086F902F0A4F876
:1057D000012003F0CFFA412003F055FA0028FAD057
:1057E0004FF4807003F0D7FA012003F0D9FA02F0E9
:1057F00037F902F02FF90121084602F0D9F802F03A
:1058000029F947F6FF7002F000F9BDE8104002F0F8
:1058100021B910B5042002F0A8F84AF2A554A0421C
:105820000CD079A00EF0BAFCFFF7C7FFFFF7BAFF64
:105830002146BDE81040042002F090B87B2003F020
:1058400022FA10B97A2003F01EFA02F009F90121B8
:10585000084602F0ADF8BDE8104002F0FBB80000C9
:105860000D0A2A2A2A2A2A2A2A2A2A2A2A2A2A2AD5
:105870002A2A2A2A2A2A2A2A2A2A2A2A2A2A2A2A88
:105880002A2A2A2A2A2A2A2A2A2A2A2A2A0D0A00DF
:105890000A0D2A2A2A2A2A2A2AC7A6D0EEB5E7B351
:1058A000D8D7D4B6AFB3E4B7C5B5E7B2E2CAD42A05
:1058B0002A2A2A2A2A2A2A2A2A2A2A2A2A0D0A00AF
:1058C000000C014000180140685401080FE000E09E
:1058D000003801400A0D2A2A2A2A2A2A2A2A2A2A94
:1058E0002A2ACAFDD6B5B7B6CEA72030202D2D2046
:1058F0002564A3ACC7EBD6D8D0C2CAE4C8EBA3BA20
:1059000000000000F0FDFFFF0A0D2A2A2ACAFDD67A
:10591000B5B7B6CEA72030202D2D202564A3ACC767
:10592000EBD6D8D0C2CAE4C8EBA3BA000D0A3D3DFD
:105930003D3D3D3D3D3D3D3D3D3D3D3DC9E8D6C341
:10594000CAB1BCE43D3D3D3D3D3D3D3D3D3D3D3D60
:105950003D3D3D3D3D3D3D3D3D3D3D000D0A202051
:10596000C9E8D6C320C4EAA3A830202D20323230A3
:1059700030A3A9A3BA000000202564000D0A20204E
:10598000C9E8D6C320D4C2A3A831202D203132A328
:10599000A9A3BA000D0A2020C9E8D6C320C8D5A300
:1059A000A831202D203331A3A9A3BA00256400001B
:1059B0000D0A2020C9E8D6C320D0A1CAB1A3A830BF
:1059C000202D203233A3A9A3BA0000000D0A202005
:1059D000C9E8D6C320B7D6D6D3A3A830202D20350A
:1059E00039A3A9A3BA0000000D0A2020C9E8D6C334
:1059F00020C3EBCAFDA3A830202D203539A3A9A3CD
:105A0000BA000000040100200D0A0ACEB4C9E8D68D
:105A1000C3CAB1BCE4000000F0B5B0F5FA6FDDE92F
:105A200005670ED0A0F2D174E51704EB957401253B
:105A300005EBA404051BA5F5FA65800703D0834890
:105A400003E00024F6E78148343000EB8100B72101
:105A50004C4340F26D1150F8040C01FB052100EBA2
:105A6000440008444FF461614B43C6EB0611401EED
:105A700003EB810140F2A3223944504301EBC010F3
:105A8000F0BD08B500214FF0006001F021FF4FF498
:105A9000E06001F0E9FE25208DF8000000208DF87F
:105AA000020001208DF80300684601F0E2FE08BD07
:105AB0002DE9FE43664A0021B0FBF2F4B0FBF2F39D
:105AC00002FB1302614B0120683300E0491C53F8CC
:105AD0002050401C9542F9DB03EB800001EB84056C
